:010000009966
:0100010001FD
:0100020012EB
:0100030021DB
:0100040012E9
:0100050021D9
:0100060012E7
:0100070021D7
:0100080012E5
:0100090021D5
:01000A0012E3
:01000B0021D3
:01000C0012E1
:01000D0021D1
:01000E0021D0
:01000F0012DE
:0100100012DD
:0100110021CD
:0100120012DB
:0100130021CB
:0100140012D9
:0100150021C9
:0100160012D7
:0100170021C7
:010018005493
:0100190001E5
:01001A0000E5
:01001B0022C2
:01001C0021C2
:01001D0012D0
:01001E0021C0
:01001F0012CE
:0100200021BE
:0100210032AC
:0100220032AB
:0100230012CA
:0100240023B8
:010025005486
:0100260000D9
:010027007662
:0100280012C5
:0100290009CD
:01002A00894C
:01002B00765E
:01002C00458E
:01002D0012C0
:01002E0023AE
:01002F00349C
:0100300012BD
:0100310023AB
:01003200329B
:010033004389
:0100340000CB
:010035005476
:010036009039
:010037009038
:010038005572
:010039004482
:01003A0005C0
:01003B0006BE
:01003C00566D
:01003D00675B
:01003E007849
:01003F008937
:0100400012AD
:0100410002BC
:0100420003BA
:0100430004B8
:0100440005B6
:0100450006B4
:0100460007B2
:010047008830
:0100480012A5
:0100490005B1
:01004A0003B2
:01004B00892B
:01004C0001B2
:01004D00981A
:01004E008928
:01004F0009A7
:0100500003AC
:0100510003AB
:0100520003AA
:0100530003A9
:0100540003A8
:0100550003A7
:0100560003A6
:0100570003A5
:0100580000A7
:0100590001A5
:01005A0001A4
:01005B001193
:01005C0003A0
:01005D0001A1
:01005E00029F
:01005F00029E
:01006000128D
:01006100237B
:010062004558
:01006300019B
:010064006734
:01006500009A
:010066000198
:010067000296
:010068000394
:010069000492
:01006A000590
:01006B00068E
:01006C00078C
:01006D00088A
:01006E000988
:01006F001080
:01007000127D
:010071000985
:010072008904
:010073007616
:010074004546
:010075001278
:010076002366
:010077003454
:010078001275
:01007900097D
:01007A0089FC
:01007B00760E
:01007C00453E
:01007D001270
:01007E00235E
:01007F00344C
:01008000126D
:010081000975
:0100820089F4
:010083007606
:010084004536
:010085001268
:010086002356
:010087003444
:010088001265
:010089002155
:01008A001263
:01008B002153
:01008C001261
:01008D002151
:01008E00125F
:01008F00214F
:01009000125D
:010091000965
:0100920089E4
:0100930076F6
:010094004526
:010095001258
:010096002346
:010097003434
:010098001255
:010099002145
:01009A001253
:01009B002143
:01009C001251
:01009D002141
:01009E00124F
:01009F00213F
:0100A000124D
:0100A1000955
:0100A20089D4
:0100A30076E6
:0100A4004516
:0100A5001248
:0100A6002336
:0100A7003424
:0100A8001245
:0100A9002135
:0100AA001243
:0100AB002133
:0100AC001241
:0100AD002131
:0100AE00123F
:0100AF00212F
:0100B000123D
:0100B1000945
:0100B20089C4
:0100B30076D6
:0100B4004506
:0100B5001238
:0100B6002326
:0100B7003414
:0100B8001235
:0100B9002125
:0100BA001233
:0100BB002123
:0100BC001231
:0100BD002121
:0100BE00122F
:0100BF00211F
:0100C000122D
:0100C1000935
:0100C20089B4
:0100C30076C6
:0100C40045F6
:0100C5001228
:0100C6002316
:0100C7003404
:0100C8001225
:0100C9002115
:0100CA001223
:0100CB002113
:0100CC001221
:0100CD002111
:0100CE00121F
:0100CF00210F
:0100D000121D
:0100D1000925
:0100D20089A4
:0100D30076B6
:0100D40045E6
:0100D5001218
:0100D6002306
:0100D70034F4
:0100D8001215
:0100D9002105
:0100DA001213
:0100DB002103
:0100DC001211
:0100DD002101
:0100DE00120F
:0100DF0021FF
:0100E000120D
:0100E1000915
:0100E2008994
:0100E30076A6
:0100E40045D6
:0100E5001208
:0100E60023F6
:0100E70034E4
:0100E8001205
:0100E900090D
:0100EA00898C
:0100EB00769E
:0100EC0045CE
:0100ED001200
:0100EE0023EE
:0100EF0034DC
:0100F00012FD
:0100F1000905
:0100F2008984
:0100F3007696
:0100F40045C6
:0100F50012F8
:0100F60023E6
:0100F70034D4
:0100F80012F5
:0100F90009FD
:0100FA00897C
:0100FB00768E
:0100FC0045BE
:0100FD0012F0
:0100FE0023DE
:0100FF0034CC
:0101000012EC
:0101010009F4
:010102008973
:010103007685
:0101040045B5
:0101050012E7
:0101060023D5
:0101070034C3
:0101080012E4
:0101090021D4
:01010A0012E2
:01010B0021D2
:01010C0012E0
:01010D0021D0
:01010E0012DE
:01010F0021CE
:0101100012DC
:0101110009E4
:010112008963
:010113007675
:0101140045A5
:0101150012D7
:0101160023C5
:0101170034B3
:0101180012D4
:0101190009DC
:01011A00895B
:01011B00766D
:01011C00459D
:01011D0012CF
:01011E0023BD
:01011F0034AB
:0101200012CC
:0101210009D4
:010122008953
:010123007665
:010124004595
:0101250012C7
:0101260023B5
:0101270034A3
:0101280012C4
:0101290009CC
:01012A00894B
:01012B00765D
:01012C00458D
:01012D0012BF
:01012E0023AD
:01012F00349B
:0101300012BC
:0101310009C4
:010132008943
:010133007655
:010134004585
:0101350012B7
:0101360023A5
:010137003493
:0101380012B4
:0101390009BC
:01013A00893B
:01013B00764D
:01013C00457D
:01013D0012AF
:01013E00239D
:01013F00348B
:0101400012AC
:0101410009B4
:010142008933
:010143007645
:010144004575
:0101450012A7
:010146002395
:010147003483
:0101480012A4
:0101490009AC
:01014A00892B
:01014B00763D
:01014C00456D
:01014D00129F
:01014E00238D
:01014F00347B
:01015000129C
:0101510009A4
:010152008923
:010153007635
:010154004565
:010155001297
:010156002385
:010157003473
:010158001294
:01015900099C
:01015A00891B
:01015B00762D
:01015C00455D
:01015D00128F
:01015E00237D
:01015F00346B
:01016000128C
:010161000994
:010162008913
:010163007625
:010164004555
:010165001287
:010166002375
:010167003463
:010168001284
:01016900098C
:01016A00890B
:01016B00761D
:01016C00454D
:01016D00127F
:01016E00236D
:01016F00345B
:01017000127C
:010171000984
:010172008903
:010173007615
:010174004545
:010175001277
:010176002365
:010177003453
:010178001274
:01017900097C
:01017A0089FB
:01017B00760D
:01017C00453D
:01017D00126F
:01017E00235D
:01017F00344B
:01018000126C
:010181000974
:0101820089F3
:010183007605
:010184004535
:010185001267
:010186002355
:010187003443
:010188001264
:01018900096C
:01018A0089EB
:01018B0076FD
:01018C00452D
:01018D00125F
:01018E00234D
:01018F00343B
:01019000125C
:010191000964
:0101920089E3
:0101930076F5
:010194004525
:010195001257
:010196002345
:010197003433
:010198001254
:01019900095C
:01019A0089DB
:01019B0076ED
:01019C00451D
:01019D00124F
:01019E00233D
:01019F00342B
:0101A000124C
:0101A1000954
:0101A20089D3
:0101A30076E5
:0101A4004515
:0101A5001247
:0101A6002335
:0101A7003423
:0101A8001244
:0101A900094C
:0101AA0089CB
:0101AB0076DD
:0101AC00450D
:0101AD00123F
:0101AE00232D
:0101AF00341B
:0101B000123C
:0101B1000944
:0101B20089C3
:0101B30076D5
:0101B4004505
:0101B5001237
:0101B6002325
:0101B7003413
:0101B8001234
:0101B900093C
:0101BA0089BB
:0101BB0076CD
:0101BC0045FD
:0101BD00122F
:0101BE00231D
:0101BF00340B
:0101C000122C
:0101C1000934
:0101C20089B3
:0101C30076C5
:0101C40045F5
:0101C5001227
:0101C6002315
:0101C7003403
:0101C8001224
:0101C900092C
:0101CA0089AB
:0101CB0076BD
:0101CC0045ED
:0101CD00121F
:0101CE00230D
:0101CF0034FB
:0101D000121C
:0101D1000924
:0101D20089A3
:0101D30076B5
:0101D40045E5
:0101D5001217
:0101D6002305
:0101D70034F3
:0101D8001214
:0101D900091C
:0101DA00899B
:0101DB0076AD
:0101DC0045DD
:0101DD00120F
:0101DE0023FD
:0101DF0034EB
:0101E000120C
:0101E1000914
:0101E2008993
:0101E30076A5
:0101E40045D5
:0101E5001207
:0101E60023F5
:0101E70034E3
:0101E8001204
:0101E900090C
:0101EA00898B
:0101EB00769D
:0101EC0045CD
:0101ED0012FF
:0101EE0023ED
:0101EF0034DB
:0101F00012FC
:0101F1000904
:0101F2008983
:0101F3007695
:0101F40045C5
:0101F50012F7
:0101F60023E5
:0101F70034D3
:0101F80012F4
:0101F90009FC
:0101FA00897B
:0101FB00768D
:0101FC0045BD
:0101FD0012EF
:0101FE0023DD
:0101FF0034CB
:0102000012EB
:0102010009F3
:010202008972
:010203007684
:0102040045B4
:0102050012E6
:0102060023D4
:0102070034C2
:0102080012E3
:0102090009EB
:01020A00896A
:01020B00767C
:01020C0045AC
:01020D0012DE
:01020E0023CC
:01020F0034BA
:0102100012DB
:0102110009E3
:010212008962
:010213007674
:0102140045A4
:0102150012D6
:0102160023C4
:0102170034B2
:0102180012D3
:0102190009DB
:01021A00895A
:01021B00766C
:01021C00459C
:01021D0012CE
:01021E0023BC
:01021F0034AA
:0102200012CB
:0102210009D3
:010222008952
:010223007664
:010224004594
:0102250012C6
:0102260023B4
:0102270034A2
:0102280012C3
:0102290009CB
:01022A00894A
:01022B00765C
:01022C00458C
:01022D0012BE
:01022E0023AC
:01022F00349A
:0102300012BB
:0102310009C3
:010232008942
:010233007654
:010234004584
:0102350012B6
:0102360023A4
:010237003492
:0102380012B3
:0102390009BB
:01023A00893A
:01023B00764C
:01023C00457C
:01023D0012AE
:01023E00239C
:01023F00348A
:0102400012AB
:0102410009B3
:010242008932
:010243007644
:010244004574
:0102450012A6
:010246002394
:010247003482
:0102480012A3
:0102490009AB
:01024A00892A
:01024B00763C
:01024C00456C
:01024D00129E
:01024E00238C
:01024F00347A
:01025000129B
:0102510009A3
:010252008922
:010253007634
:010254004564
:010255001296
:010256002384
:010257003472
:010258001293
:01025900099B
:01025A00891A
:01025B00762C
:01025C00455C
:01025D00128E
:01025E00237C
:01025F00346A
:01026000128B
:010261000993
:010262008912
:010263007624
:010264004554
:010265001286
:010266002374
:010267003462
:010268001283
:01026900098B
:01026A00890A
:01026B00761C
:01026C00454C
:01026D00127E
:01026E00236C
:01026F00345A
:01027000127B
:010271000983
:010272008902
:010273007614
:010274004544
:010275001276
:010276002364
:010277003452
:010278001273
:01027900097B
:01027A0089FA
:01027B00760C
:01027C00453C
:01027D00126E
:01027E00235C
:01027F00344A
:01028000126B
:010281000973
:0102820089F2
:010283007604
:010284004534
:010285001266
:010286002354
:010287003442
:010288001263
:01028900096B
:01028A0089EA
:01028B0076FC
:01028C00452C
:01028D00125E
:01028E00234C
:01028F00343A
:01029000125B
:010291000963
:0102920089E2
:0102930076F4
:010294004524
:010295001256
:010296002344
:010297003432
:010298001253
:01029900095B
:01029A0089DA
:01029B0076EC
:01029C00451C
:01029D00124E
:01029E00233C
:01029F00342A
:0102A000124B
:0102A1000953
:0102A20089D2
:0102A30076E4
:0102A4004514
:0102A5001246
:0102A6002334
:0102A7003422
:0102A8001243
:0102A900094B
:0102AA0089CA
:0102AB0076DC
:0102AC00450C
:0102AD00123E
:0102AE00232C
:0102AF00341A
:0102B000123B
:0102B1000943
:0102B20089C2
:0102B30076D4
:0102B4004504
:0102B5001236
:0102B6002324
:0102B7003412
:0102B8001233
:0102B900093B
:0102BA0089BA
:0102BB0076CC
:0102BC0045FC
:0102BD00122E
:0102BE00231C
:0102BF00340A
:0102C000122B
:0102C1000933
:0102C20089B2
:0102C30076C4
:0102C40045F4
:0102C5001226
:0102C6002314
:0102C7003402
:0102C8001223
:0102C900092B
:0102CA0089AA
:0102CB0076BC
:0102CC0045EC
:0102CD00121E
:0102CE00230C
:0102CF0034FA
:0102D000121B
:0102D1000923
:0102D20089A2
:0102D30076B4
:0102D40045E4
:0102D5001216
:0102D6002304
:0102D70034F2
:0102D8001213
:0102D900091B
:0102DA00899A
:0102DB0076AC
:0102DC0045DC
:0102DD00120E
:0102DE0023FC
:0102DF0034EA
:0102E000120B
:0102E1000913
:0102E2008992
:0102E30076A4
:0102E40045D4
:0102E5001206
:0102E60023F4
:0102E70034E2
:0102E8001203
:0102E900090B
:0102EA00898A
:0102EB00769C
:0102EC0045CC
:0102ED0012FE
:0102EE0023EC
:0102EF0034DA
:0102F00012FB
:0102F1000903
:0102F2008982
:0102F3007694
:0102F40045C4
:0102F50012F6
:0102F60023E4
:0102F70034D2
:0102F80012F3
:0102F90009FB
:0102FA00897A
:0102FB00768C
:0102FC0045BC
:0102FD0012EE
:0102FE0023DC
:0102FF0034CA
:0103000012EA
:0103010009F2
:010302008971
:010303007683
:0103040045B3
:0103050012E5
:0103060023D3
:0103070034C1
:0103080012E2
:0103090009EA
:01030A008969
:01030B00767B
:01030C0045AB
:01030D0012DD
:01030E0023CB
:01030F0034B9
:0103100012DA
:0103110009E2
:010312008961
:010313007673
:0103140045A3
:0103150012D5
:0103160023C3
:0103170034B1
:0103180012D2
:0103190009DA
:01031A008959
:01031B00766B
:01031C00459B
:01031D0012CD
:01031E0023BB
:01031F0034A9
:0103200012CA
:0103210009D2
:010322008951
:010323007663
:010324004593
:0103250012C5
:0103260023B3
:0103270034A1
:0103280012C2
:0103290009CA
:01032A008949
:01032B00765B
:01032C00458B
:01032D0012BD
:01032E0023AB
:01032F003499
:0103300012BA
:0103310009C2
:010332008941
:010333007653
:010334004583
:0103350012B5
:0103360023A3
:010337003491
:0103380012B2
:0103390009BA
:01033A008939
:01033B00764B
:01033C00457B
:01033D0012AD
:01033E00239B
:01033F003489
:0103400012AA
:0103410009B2
:010342008931
:010343007643
:010344004573
:0103450012A5
:010346002393
:010347003481
:0103480012A2
:0103490009AA
:01034A008929
:01034B00763B
:01034C00456B
:01034D00129D
:01034E00238B
:01034F003479
:01035000129A
:0103510009A2
:010352008921
:010353007633
:010354004563
:010355001295
:010356002383
:010357003471
:010358001292
:01035900099A
:01035A008919
:01035B00762B
:01035C00455B
:01035D00128D
:01035E00237B
:01035F003469
:01036000128A
:010361000992
:010362008911
:010363007623
:010364004553
:010365001285
:010366002373
:010367003461
:010368001282
:01036900098A
:01036A008909
:01036B00761B
:01036C00454B
:01036D00127D
:01036E00236B
:01036F003459
:01037000127A
:010371000982
:010372008901
:010373007613
:010374004543
:010375001275
:010376002363
:010377003451
:010378001272
:01037900097A
:01037A0089F9
:01037B00760B
:01037C00453B
:01037D00126D
:01037E00235B
:01037F003449
:01038000126A
:010381000972
:0103820089F1
:010383007603
:010384004533
:010385001265
:010386002353
:010387003441
:010388001262
:01038900096A
:01038A0089E9
:01038B0076FB
:01038C00452B
:01038D00125D
:01038E00234B
:01038F003439
:01039000125A
:010391000962
:0103920089E1
:0103930076F3
:010394004523
:010395001255
:010396002343
:010397003431
:010398001252
:01039900095A
:01039A0089D9
:01039B0076EB
:01039C00451B
:01039D00124D
:01039E00233B
:01039F003429
:0103A000124A
:0103A1000952
:0103A20089D1
:0103A30076E3
:0103A4004513
:0103A5001245
:0103A6002333
:0103A7003421
:0103A8001242
:0103A900094A
:0103AA0089C9
:0103AB0076DB
:0103AC00450B
:0103AD00123D
:0103AE00232B
:0103AF003419
:0103B000123A
:0103B1000942
:0103B20089C1
:0103B30076D3
:0103B4004503
:0103B5001235
:0103B6002323
:0103B7003411
:0103B8001232
:0103B900093A
:0103BA0089B9
:0103BB0076CB
:0103BC0045FB
:0103BD00122D
:0103BE00231B
:0103BF003409
:0103C000122A
:0103C1000932
:0103C20089B1
:0103C30076C3
:0103C40045F3
:0103C5001225
:0103C6002313
:0103C7003401
:0103C8001222
:0103C900092A
:0103CA0089A9
:0103CB0076BB
:0103CC0045EB
:0103CD00121D
:0103CE00230B
:0103CF0034F9
:0103D000121A
:0103D100210A
:0103D2001218
:0103D3002108
:0103D4001216
:0103D5002106
:0103D6001214
:0103D7002104
:0103D8001212
:0103D900091A
:0103DA008999
:0103DB0076AB
:0103DC0045DB
:0103DD00120D
:0103DE0023FB
:0103DF0034E9
:0103E000120A
:0103E1000912
:0103E2008991
:0103E30076A3
:0103E40045D3
:0103E5001205
:0103E60023F3
:0103E70034E1
:0103E8001202
:0103E900090A
:0103EA008989
:0103EB00769B
:0103EC0045CB
:0103ED0012FD
:0103EE0023EB
:0103EF0034D9
:0103F00012FA
:0103F1000902
:0103F2008981
:0103F3007693
:0103F40045C3
:0103F50012F5
:0103F60023E3
:0103F70034D1
:0103F80012F2
:0103F90009FA
:0103FA008979
:0103FB00768B
:0103FC0045BB
:0103FD0012ED
:0103FE0023DB
:0103FF0034C9
:010400009962
:00000001FF
